:100000000C9434000C9451000C9451000C94510049
:100010000C941D030C9451000C9451000C9451004D
:100020000C9451000C9451000C9451000C9451000C
:100030000C9451000C9451000C9451000C945100FC
:100040000C9451000C9451000C945E030C945100DC
:100050000C9451000C9446020C9451000C945100E5
:100060000C9451000C94510011241FBECFEFD8E026
:10007000DEBFCDBF11E0A0E0B1E0ECEBFAE002C0E2
:1000800005900D92AA32B107D9F721E0AAE2B1E0BA
:1000900001C01D92A333B207E1F70E9409020C943C
:1000A0005C050C94000084B1886084B98AB18860D2
:1000B0008AB9E0EBF0E010828081806880838081E3
:1000C00080628083808183608083E1EBF0E0108236
:1000D00080818560808308958093B3000895809324
:1000E000B4000895E8E6F0E0808183608083ECE668
:1000F000F0E080818F608083EBE6F0E080818061BA
:10010000808308958AB182608AB98AB18E7F8AB964
:10011000E0ECF0E0108282E08083E1ECF0E08081AE
:1001200088698083E2ECF0E08081866080838CE0E7
:1001300090E09093C5008093C4000895ECE7F0E050
:100140001082808180648083808180628083EAE77E
:10015000F0E010828081836080838081886080836A
:100160008081806880830895F8940E9453000E94E3
:100170009E000E9495030E94B6030E9472000E9496
:10018000820084B1816184B985B18E7E85B98AB1DE
:10019000806C8AB98BB189778BB987B1807F87B939
:1001A00088B18F6088B9E1E6F0E080E8808384E080
:1001B00080837894EAE7F0E080818064808308950A
:1001C000F999FECF72BD61BD80BD8FB384608FBBD6
:1001D0008FB382608FBB0895F999FECF92BD81BD28
:1001E0008FB381608FBB80B508959091C00095FF5B
:1001F000FCCF8093C60008950F931F93CF938C017B
:10020000C0E003C00E94F500CF5FF801EC0FF11DC4
:1002100080818111F7CFCF911F910F910895809127
:100220002B01813009F066C060912A0170E0660FF1
:10023000771F660F771F809131010E94E000609167
:100240002A0170E0660F771F660F771F6F5F7F4F81
:10025000809130010E94E00060912A0170E0660FF9
:10026000771F660F771F6E5F7F4F809101010E949D
:10027000E00060912A0170E0660F771F660F771F1C
:100280006D5F7F4F809100010E94E0008EE20E942E
:10029000F500809103010E94F5008EE20E94F500B6
:1002A000809102010E94F5008EE20E94F50080918B
:1002B00001010E94F5008EE20E94F500809100018C
:1002C0000E94F50084E091E00E94FC0080912A01E8
:1002D0008F5C0E94F50087E191E00E94FC00809114
:1002E0002A018F5F80932A01843010F010922A0136
:1002F00010922B010895FF920F931F93CF93DF93DA
:10030000F82EC82FD0E0CC0FDD1FCC0FDD1FCE01A3
:100310000E94EC00082FCE0101960E94EC00182FDD
:10032000CE0102960E94EC0080930101CE0103965B
:100330000E94EC0080930001602F70E080E090E06C
:100340000E9463042DEB3CEB4CE35FE30E94EF045F
:1003500020E030E04AE852E40E94C6030E943204E2
:10036000C62F60930301612F70E080E090E00E944F
:1003700063042DEB3CEB4CE35FE30E94EF0420E0D1
:1003800030E04AE852E40E94C6030E9432046093BF
:1003900002018C2F0E94B003809102010E94BF03D2
:1003A000809101010E946C00809100010E946F0009
:1003B0008AE191E00E94FC0081E38F0D0E94F5002C
:1003C00087E191E00E94FC00DF91CF911F910F9196
:1003D000FF90089580912B01813019F480E00E94F4
:1003E0007B0180912B01823019F481E00E947B0116
:1003F00080912B01843019F482E00E947B0180916E
:100400002B01883019F483E00E947B0110922B01AC
:1004100008950E94B40080E090E00E94EC00C0E0EB
:1004200007C00E94F500CF5F8C2F90E00E94EC0087
:100430008F3FB9F780912D01813059F48BB18F77BF
:100440008BB985B18E7E85B98BB180648BB90E94E2
:100450000F0180912D01823059F48BB18F7B8BB9C4
:1004600085B18E7E85B98BB180688BB90E94EA0117
:1004700080912D018430F1F68BB18F738BB985B1EA
:100480008F7E85B985B1816085B9D4CF1F920F92D7
:100490000FB60F9211242F933F934F935F936F9357
:1004A0007F938F939F93AF93BF93EF93FF9380912D
:1004B0002D01813009F0ABC0809132018F5F8093B4
:1004C0003201833009F457C028F4813051F0823072
:1004D00069F19DC0843009F473C0853009F495C07A
:1004E00096C0ECE7F0E08081887F80838081866021
:1004F0008083609179006093310170E080E090E04A
:100500000E9463042BEB3AEB4AE35FE30E94EF04A3
:1005100020E030E048E852E40E94C6030E94320422
:10052000862F609303010E94B00371C0ECE7F0E0F6
:100530008081887F8083808187608083609179005B
:100540006093300170E080E090E00E9463042BEB48
:100550003AEB4AE35FE30E94EF0420E030E048E832
:1005600052E40E94C6030E943204862F6093020167
:100570000E94BF034CC0ECE7F0E08081887F80835D
:100580008081856080836091790060932F0170E0A5
:1005900080E090E00E94630421EC30EC40EC5DE3ED
:1005A0000E94EF0420E030E040E050E40E94C603E7
:1005B0000E943204862F609301010E946C0027C0C4
:1005C000ECE7F0E08081887F808380818460808395
:1005D0006091790060932E0170E080E090E00E94CD
:1005E000630421EC30EC40EC5DE30E94EF0420E07A
:1005F00030E040E050E40E94C6030E943204862F9F
:10060000609300010E946F0002C010923201EAE77D
:10061000F0E0808180648083FF91EF91BF91AF9182
:100620009F918F917F916F915F914F913F912F910A
:100630000F900FBE0F901F9018951F920F920FB63C
:100640000F9211248F939F9386B183FD05C09091E3
:100650002C019F5F90932C0190912C01923069F0B6
:1006600018F4913031F014C0933059F0943069F09F
:100670000FC091E090932D010BC092E090932D015B
:1006800007C094E090932D0103C091E090932C015A
:1006900082FD03C091E090932B0181FD03C092E0A5
:1006A00090932B0180FD03C084E080932B019F91E8
:1006B0008F910F900FBE0F901F9018951F920F9261
:1006C0000FB60F9211242F933F934F935F936F9325
:1006D0007F938F939F93AF93BF93EF93FF938091FB
:1006E000C600813341F0823351F0803359F491E0F8
:1006F00090932D0107C092E090932D0103C094E0E8
:1007000090932D010E94F500FF91EF91BF91AF9161
:100710009F918F917F916F915F914F913F912F9119
:100720000F900FBE0F901F90189584B1826084B90E
:10073000E0E8F0E0108280818068808380818260C0
:100740008083E1E8F0E0808188618083808182603D
:10075000808383EC99E090938700809386000895CE
:1007600090E09093890080938800089584B184601C
:1007700084B9E0E8F0E0808180628083089590E0B1
:1007800090938B0080938A0008955058BB27AA2726
:100790000E94DD030C94B5040E94A70438F00E9467
:1007A000AE0420F039F49F3F19F426F40C94A4040D
:1007B0000EF4E095E7FB0C949E04E92F0E94C6041A
:1007C00058F3BA17620773078407950720F079F486
:1007D000A6F50C94E8040EF4E0950B2EBA2FA02D8C
:1007E0000B01B90190010C01CA01A0011124FF27DE
:1007F000591B99F0593F50F4503E68F11A16F040D9
:10080000A22F232F342F4427585FF3CF46953795D7
:100810002795A795F0405395C9F77EF41F16BA0B9C
:10082000620B730B840BBAF09150A1F0FF0FBB1F4A
:10083000661F771F881FC2F70EC0BA0F621F731F93
:10084000841F48F4879577956795B795F7959E3FF0
:1008500008F0B0CF9395880F08F09927EE0F979581
:10086000879508950E94CE0488F09F5798F0B92F7D
:100870009927B751B0F0E1F0660F771F881F991FD5
:100880001AF0BA95C9F714C0B13091F00E94E8048B
:10089000B1E008950C94E804672F782F8827B85F9B
:1008A00039F0B93FCCF3869577956795B395D9F72D
:1008B0003EF490958095709561957F4F8F4F9F4F37
:1008C0000895E89409C097FB3EF490958095709543
:1008D00061957F4F8F4F9F4F9923A9F0F92F96E98C
:1008E000BB279395F695879577956795B795F11101
:1008F000F8CFFAF4BB0F11F460FF1BC06F5F7F4F9E
:100900008F4F9F4F16C0882311F096E911C07723AF
:1009100021F09EE8872F762F05C0662371F096E8B8
:10092000862F70E060E02AF09A95660F771F881F87
:10093000DAF7880F9695879597F9089597F99F6745
:1009400080E870E060E008959FEF80EC0895002457
:100950000A941616170618060906089500240A9424
:1009600012161306140605060895092E0394000CAA
:1009700011F4882352F0BB0F40F4BF2B11F460FF39
:1009800004C06F5F7F4F8F4F9F4F089557FD905862
:10099000440F551F59F05F3F71F04795880F97FB43
:1009A000991F61F09F3F79F08795089512161306FD
:1009B0001406551FF2CF4695F1DF08C0161617062C
:1009C0001806991FF1CF8695710561050894089561
:1009D000E894BB2766277727CB0197F908950E94F3
:1009E00002050C94B5040E94A70438F00E94AE04DE
:1009F00020F0952311F00C949E040C94A40411246F
:100A00000C94E9040E94C60470F3959FC1F3950FFE
:100A100050E0551F629FF001729FBB27F00DB11D82
:100A2000639FAA27F00DB11DAA1F649F6627B00D12
:100A3000A11D661F829F2227B00DA11D621F739FFB
:100A4000B00DA11D621F839FA00D611D221F749F09
:100A50003327A00D611D231F849F600D211D822F50
:100A6000762F6A2F11249F5750409AF0F1F0882377
:100A70004AF0EE0FFF1FBB1F661F771F881F9150A4
:100A80005040A9F79E3F510580F00C949E040C94B1
:100A9000E9045F3FE4F3983ED4F386957795679534
:100AA000B795F795E7959F5FC1F7FE2B880F911DCE
:0C0AB0009695879597F90895F894FFCF6C
:100ABC0080808080477561726461646120706F739F
:100ACC00696369F36E20000D0A00706F73696369C6
:0A0ADC00F36E206C65ED64612000EC
:00000001FF
