:100000000C9434000C9451000C9451000C94510049
:100010000C9451000C9451000C9451000C9451001C
:100020000C9451000C9451000C9451000C9451000C
:100030000C9451000C9451000C9451000C945100FC
:100040000C9451000C9451000C9451000C945100EC
:100050000C9451000C94DB000C9451000C94510052
:100060000C9451000C94510011241FBECFEFD8E026
:10007000DEBFCDBF11E0A0E0B1E0ECEEF6E002C0E3
:1000800005900D92A430B107D9F721E0A4E0B1E0CA
:1000900001C01D92A930B207E1F70E94D8000C946C
:1000A00074030C94000084B1886084B98AB18860BC
:1000B0008AB9E0EBF0E010828081806880838081E3
:1000C00080628083808183608083E1EBF0E0108236
:1000D00080818560808308958093B3000895809324
:1000E000B4000895E8E6F0E0808182608083ECE669
:1000F000F0E080818860808308958AB182608AB947
:100100008AB18E7F8AB91092C000E1ECF0E0808164
:1001100088698083E2ECF0E080818660808387E6F6
:1001200090E09093C5008093C4000895ECE7F0E060
:100130001082808180648083808180628083EAE78E
:10014000F0E010828081836080838081886080837A
:100150008081806880830895F8940E9453000E94F3
:1001600096000E94AD010E94CE010E9472000E9482
:100170007D0084B1816084B985B18F7E85B98AB1F3
:10018000806C8AB98BB189778BB988B1877F88B940
:1001900088B1886088B9E1E6F0E080E8808384E097
:1001A00080837894EAE7F0E080818064808308951A
:1001B0000E94AC00FFCF1F920F920FB60F92112436
:1001C0002F933F934F935F936F937F938F939F935F
:1001D000AF93BF93EF93FF93809108018F5F80935C
:1001E0000801833009F457C028F4813051F082307F
:1001F00069F19DC0843009F473C0853009F495C05D
:1002000096C0ECE7F0E08081887F80838081866003
:100210008083609179006093070170E080E090E056
:100220000E947B022DEB3CEB4CE35FE30E94070353
:1002300020E030E04AE852E40E94DE010E944A02D7
:10024000862F609303010E94C80171C0ECE7F0E0C3
:100250008081887F8083808187608083609179003E
:100260006093060170E080E090E00E947B022DEB3D
:100270003CEB4CE35FE30E94070320E030E04AE8F8
:1002800052E40E94DE010E944A02862F609302011E
:100290000E94D7014CC0ECE7F0E08081887F80832A
:1002A000808185608083609179006093050170E0B2
:1002B00080E090E00E947B0221EC30EC40EC5DE3BA
:1002C0000E94070320E030E040E050E40E94DE019D
:1002D0000E944A02862F609301010E946C0027C091
:1002E000ECE7F0E08081887F808380818460808378
:1002F000609179006093040170E080E090E00E94DA
:100300007B0221EC30EC40EC5DE30E94070320E02F
:1003100030E040E050E40E94DE010E944A02862F55
:10032000609300010E946F0002C010920801EAE78A
:10033000F0E0808180648083FF91EF91BF91AF9165
:100340009F918F917F916F915F914F913F912F91ED
:100350000F900FBE0F901F90189584B1826084B9E2
:10036000E0E8F0E010828081806880838081826094
:100370008083E1E8F0E08081886180838081826011
:10038000808383EC99E090938700809386000895A2
:1003900090E09093890080938800089584B18460F0
:1003A00084B9E0E8F0E0808180628083089590E085
:1003B00090938B0080938A0008955058BB27AA27FA
:1003C0000E94F5010C94CD020E94BF0238F00E94F9
:1003D000C60220F039F49F3F19F426F40C94BC02B5
:1003E0000EF4E095E7FB0C94B602E92F0E94DE02C2
:1003F00058F3BA17620773078407950720F079F45A
:10040000A6F50C9400030EF4E0950B2EBA2FA02D48
:100410000B01B90190010C01CA01A0011124FF27B1
:10042000591B99F0593F50F4503E68F11A16F040AC
:10043000A22F232F342F4427585FF3CF46953795AB
:100440002795A795F0405395C9F77EF41F16BA0B70
:10045000620B730B840BBAF09150A1F0FF0FBB1F1E
:10046000661F771F881FC2F70EC0BA0F621F731F67
:10047000841F48F4879577956795B795F7959E3FC4
:1004800008F0B0CF9395880F08F09927EE0F979555
:10049000879508950E94E60288F09F5798F0B92F3B
:1004A0009927B751B0F0E1F0660F771F881F991FA9
:1004B0001AF0BA95C9F714C0B13091F00E94000348
:1004C000B1E008950C940003672F782F8827B85F58
:1004D00039F0B93FCCF3869577956795B395D9F701
:1004E0003EF490958095709561957F4F8F4F9F4F0B
:1004F0000895E89409C097FB3EF490958095709517
:1005000061957F4F8F4F9F4F9923A9F0F92F96E95F
:10051000BB279395F695879577956795B795F111D4
:10052000F8CFFAF4BB0F11F460FF1BC06F5F7F4F71
:100530008F4F9F4F16C0882311F096E911C0772383
:1005400021F09EE8872F762F05C0662371F096E88C
:10055000862F70E060E02AF09A95660F771F881F5B
:10056000DAF7880F9695879597F9089597F99F6719
:1005700080E870E060E008959FEF80EC089500242B
:100580000A941616170618060906089500240A94F8
:1005900012161306140605060895092E0394000C7E
:1005A00011F4882352F0BB0F40F4BF2B11F460FF0D
:1005B00004C06F5F7F4F8F4F9F4F089557FD905836
:1005C000440F551F59F05F3F71F04795880F97FB17
:1005D000991F61F09F3F79F08795089512161306D1
:1005E0001406551FF2CF4695F1DF08C01616170600
:1005F0001806991FF1CF8695710561050894089535
:10060000E894BB2766277727CB0197F908950E94C6
:100610001A030C94CD020E94BF0238F00E94C60259
:1006200020F0952311F00C94B6020C94BC02112416
:100630000C9401030E94DE0270F3959FC1F3950FA5
:1006400050E0551F629FF001729FBB27F00DB11D56
:10065000639FAA27F00DB11DAA1F649F6627B00DE6
:10066000A11D661F829F2227B00DA11D621F739FCF
:10067000B00DA11D621F839FA00D611D221F749FDD
:100680003327A00D611D231F849F600D211D822F24
:10069000762F6A2F11249F5750409AF0F1F088234B
:1006A0004AF0EE0FFF1FBB1F661F771F881F915078
:1006B0005040A9F79E3F510580F00C94B6020C946F
:1006C00001035F3FE4F3983ED4F3869577956795F1
:1006D000B795F795E7959F5FC1F7FE2B880F911DA2
:0C06E0009695879597F90895F894FFCF40
:0406EC00808080800A
:00000001FF
